:100000000C9449040C9466040C9466040C946604E5
:100010000C9466040C9466040C9466040C946604B8
:100020000C9466040C9466040C94562C0C94282DA5
:100030000C94F2220C9466040C9466040C946604EE
:100040000C9466040C9466040C9466040C94660488
:100050000C9466040C945A230C9466040C94660465
:100060000C9466040C9466040C9466040C94660468
:100070000C9466040C9466040C9466040C94660458
:100080000C9466040C9466040C9466040C94660448
:100090000C9466040C9466040C9466040C94660438
:1000A0000C9466040C9466040C946604BC04BF04AF
:1000B000C204C504C804CB04CE04F111F411FC1130
:1000C000011206120B12101215121A121F1224120C
:1000D00029122B122E123112341237123A123C12FC
:1000E00041121B181B184D184D189318B3180C1AF1
:1000F0006A1AF5189219A319A319031A6A1A6A1A27
:10010000641AFA1AFA1A0C1B0C1B031B0C1B0C1B8F
:100110000C1BFA1AFA1A081B0C1B0C1B081BCC260A
:10012000C226DA2633273A273A2733273A273A27AF
:10013000FB263A2705270F273A273A273A273A2757
:1001400033273A273A2733273A27E8263A273A2708
:100150001F271F271F271F271F271F271F271F276F
:100160001F2735273A27CC26BF263A273A273A2792
:100170003A273A273A273A273A273A273A2735277C
:100180003A273A2733273A271D271D271D271D27E2
:100190001D271D271D271D271D273527952DBC2D04
:1001A000AE2EBC2DAE2E082E2B2EAE2E812E902ED6
:1001B00035002B002900E100E00000001E001400C3
:1001C00004001D0064004D001F001A0016001B00F3
:1001D000E2002A002000080007000600E3002C00CF
:1001E000210015000900190003514A0022001700E0
:1001F0000A00050000006564230001530000006F41
:100200000000E30022000153000000670000E2004C
:1002100023001C000B0011000000296124001800BD
:100220000D00100004514B0025000C000E0036009C
:1002300050002C00260012000F00370051002B0048
:10024000270013003300380052004E002A002F0010
:100250003400D95C4F0000000100010001000100E2
:10026000010000003A001E022002220201000100EB
:100270003B001F02210223020100C95C3C002F0247
:1002800026022F000100CA5C3D0030022702300028
:10029000010001003E003102350035020000C35C60
:1002A0000100010000000100000001000100010048
:1002B000000001000000C25C3F0052005100240217
:1002C000000001004000240021001E000100010088
:1002D0004100250022001F003700C55C42002600B7
:1002E000230020002700C65C430025022E023100B7
:1002F0002E00010044004500010001000100000043
:1003000001000100010001000100000001000100E6
:10031000010001000100010001000100F2000100E4
:10032000010001000100F000F1000100F4000100F3
:1003300001000100F3000100F500010001000100CF
:1003400001000100000001000100010000000100A7
:100350000000010001000100000001000000010098
:100360000100010001000100000001000100010086
:100370000100010001000100010001000100AC00CA
:10038000AA00B600010001000100AB00A8000100B6
:100390000100010001000100010001000100010055
:1003A000AE0001000100000000000000000000009D
:1003B00000000000000042003E003A000000000083
:1003C000000043003F003B0000000000000044002C
:1003D00040003C0000002C000000450041003D00B2
:1003E000010000000000000000000000000000000C
:1003F00000000000000000000000000000000000FD
:1004000000000000000000000000000000000000EC
:100410000000000000005C005900620000000000C5
:1004200000005D005A0000004A002C0000005E0041
:100430005B0000004E000000000000000000000013
:100440004B0000004C000000000028004D000000A0
:100450000000000000000000000000001E1400006A
:1004600000000000641400001F14000000000000E1
:100470000000000020140000000000000000000048
:100480002114000000000000000000002214000001
:100490000000000000000000231400000000000025
:1004A0000000000022140000000000000000000016
:1004B00023140000000000000000000024140000CD
:1004C00000000000010000002514000000000000F2
:1004D000E600000026142D0000000000AA00000025
:1004E00027142E0000000000A90000004C0030007E
:1004F0003200D95CE200000000047F3F1F64321428
:10050000643214783C1E1E140A052223252628294D
:100510002A2C2D2F3032333536383A3B3D3E40427F
:10052000434547494A4C4E5051535557595A5C5EC2
:100530006062646668696B6D6F71737577797B7DD6
:100540007F81838587898A8C8E90929496989A9CD5
:100550009E9FA1A3A5A7A8AAACAEAFB1B3B4B6B8ED
:10056000B9BBBCBEBFC1C2C3C5C6C7C9CACBCCCD4F
:10057000CED0D1D2D2D3D4D5D6D7D7D8D9D9DADA2A
:10058000DBDBDBDCDCDCDCDCDDDDDDDDDCDCDCDCAA
:10059000DCDBDBDBDADAD9D9D8D7D7D6D5D4D3D2DE
:1005A000D2D1D0CECDCCCBCAC9C7C6C5C3C2C1BFBC
:1005B000BEBCBBB9B8B6B4B3B1AFAEACAAA8A7A520
:1005C000A3A19F9E9C9A98969492908E8C8A8987DC
:1005D0008583817F7D7B79777573716F6D6B6968BA
:1005E000666462605E5C5A5957555351504E4C4A8E
:1005F0004947454342403E3D3B3A38363533323039
:100600002F2D2C2A292826252322FFAA7F5540009A
:1006100001010101010101010102020202020202C3
:100620000202030303030303030304040404040496
:10063000040505050505060606060607070707075C
:1006400008080808090909090A0A0A0B0B0B0C0C0F
:100650000C0D0D0D0E0E0E0F0F0F101011111112AB
:100660001213131414151516161717181819191A2A
:100670001A1B1B1C1D1D1E1E1F202021222223248D
:1006800024252626272829292A2B2C2D2D2E2F30CC
:10069000313232333435363738393A3B3C3D3E3FE0
:1006A000404142434445464748494A4C4D4E4F50CD
:1006B000515354555658595A5B5D5E5F616264658B
:1006C0006668696B6C6D6F7072737577787A7B7D15
:1006D0007E8082838587888A8C8E8F919395969869
:1006E0009A9C9EA0A2A3A5A7A9ABADAFB1B3B5B785
:1006F000BABCBEC0C2C4C6C9CBCDCFD1D4D6D8DB5C
:10070000DDDFE2E4E7E9EBEEF0F3F5F8FAFDFF04F4
:10071000033000000016034500720067006F0044BC
:10072000006F007800200045005A000000160345C5
:1007300000720067006F0044006F007800200045E1
:10074000005A0000000403090409023B00020100F2
:10075000A0FA0904000001030101000921110100B0
:10076000012240000705810308000A090401000175
:100770000300000009211101000122BC00070582CD
:100780000320000A1201100100000008EDFE07130B
:1007900001000102030105010902A101850209010D
:1007A000A100050919012905150025019505750107
:1007B0008102950175038101050109300931158117
:1007C000257F95027508810609381581257F9501D9
:1007D00075088106050C0A38021581257F9501757B
:1007E000088106C0C005010980A101850319012AFD
:1007F000B700150126B700950175108100C0050CE2
:100800000901A101850419012AA002150126A002EF
:10081000950175108100C005010906A10185050536
:100820000719E029E71500250195087501810205E2
:1008300007190029EF1500250195F07501810205C2
:100840000819012905950575019102950175039116
:1008500001C005010906A101050719E029E71500F6
:10086000250195087501810295017508810105072B
:10087000190029FF150026FF00950675088100055F
:1008800008190129059505750191029501750391D6
:1008900001C011241FBECFEFDAE0DEBFCDBF12E0F2
:1008A000A0E0B1E0ECE5F1E602C005900D92A236C1
:1008B000B107D9F723E0A2E6B2E001C01D92AE3E37
:1008C000B207E1F70E947F290C94AC300C94000031
:1008D00080B38C7080BB81B3836F81BB089584B17A
:1008E000807F84B985B1807F85B98AB1837F8AB9D9
:1008F0008BB1837F8BB93E9846980895CF93E82FAC
:10090000873080F58091060190910701892B09F0CD
:1009100047C0CE2F64E670E080E40E945B149093A1
:10092000070180930601892BD1F464E670E082E12F
:100930000E94B2149093070180930601892B79F4E9
:1009400081E090E001C0880FCA95EAF764E670E0A4
:1009500080950E94B2149093070180930601CF9175
:100960000C94071590E0FC013797E730F105C0F4CF
:10097000EA5AFF4F0C94182F209A289811C0219AF8
:1009800029980EC0229A2A980BC0239A2B9808C047
:10099000529A5A9805C0539A5B9802C03E9A46985C
:1009A000CF910895CF93873040F5809106019091C3
:1009B0000701892B59F564E670E081E40E945B141D
:1009C0009093070180930601892B11F0C0E011C0BC
:1009D00084E690E00E94E21497FF05C0909307011F
:1009E00080930601F3CFC82FC09510920701109293
:1009F00006010E9407158C2F0AC09FB18FB1807F1E
:100A0000869586959370892B809501C080E0CF9163
:100A10000895089508950C940A050E94BF0690E079
:100A200090930701809306010E946F040E9468045E
:100A3000A1E7B2E0E3E6F2E08EE08E0F11921D92A4
:100A40008E13FCCF8EE00E94870A0C94EF070E9461
:100A5000BF0690E090930701809306010E946F0407
:100A60000E946804E3E6F2E08EE08E0F11928E138E
:100A7000FDCF0895CF92DF92EF92FF920F931F93D5
:100A8000CF93DF938091060190910701892B91F01C
:100A9000809162028F5F8093620281110BC00E947D
:100AA000BF0690E09093070180930601892B11F413
:100AB0000E94310691E7E92E92E0F92E08E712E054
:100AC000C0E0D12C87E0C82ECC0E8C2F0E947E0473
:100AD0008C2D0E947E048C2F0E94D204F7019081FD
:100AE000981719F08083D1E001C0D0E08C2D0E94CE
:100AF000D204F8019081981719F0808381E001C039
:100B000080E0D82BDD2A0E946F04CF5FFFEFEF1A41
:100B1000FF0A0F5F1F4FC730A9F62D2D4EE063E689
:100B200072E081E792E00E94F90A0E94F90781E0F1
:100B3000DF91CF911F910F91FF90EF90DF90CF90B9
:100B40000895E82FF0E0ED59FD4F80810895089554
:100B50002BB1342F309523233BB1432B3FB7F8946F
:100B6000FC01680F791FE617F70789F0819198E07B
:100B70004BB9000000C087FF2BB9880F000000C0F0
:100B800000C000C02BB900C09A9591F7ECCF3FBFD1
:100B900008952AB1242B2AB9660F771F660F771F95
:100BA0000E94A8058FE391E00197F1F700C00000D3
:100BB000089540E80C94C9050F931F93CF93DF93DA
:100BC0008091940380FD17C080E090E0FC01E7561F
:100BD000FC4F118210821282138204968C3391058D
:100BE000A9F70E94551464E670E084E80E945B1443
:100BF000C0E0D0E00BC0C9E9D3E0CE010E94900C68
:100C0000249683E0C53DD807C1F7EBCF8E01075688
:100C10001C4F64E670E0F80180810E94B21464E623
:100C200070E0F80181810E94B21464E670E0F8017E
:100C300082810E94B21464E670E0F80183810E9410
:100C4000B2142496CC33D10509F70E9407156FE042
:100C500070E089E993E0DF91CF911F910F910C949F
:100C6000D90556985E9825982D9826982E982798FD
:100C70002F988FEF90E09093890080938800909355
:100C80008B0080938A0090938D0080938C00259A2E
:100C90002D9A2FEF80E792E0215080409040E1F7BD
:100CA00000C00000269A2E9A2FEF80E792E0215094
:100CB00080409040E1F700C00000279A2F9A2FEF64
:100CC00080E792E0215080409040E1F700C00000B2
:100CD00025982D982FEF80E792E02150804090409A
:100CE000E1F700C0000026982E982FEF80E792E0F1
:100CF000215080409040E1F700C0000027982F98D5
:100D000056985E9825982D9826982E9827982F9873
:100D1000089589EA8093800089E080938100249877
:100D20002C983F988AB18F7C8AB96E98479A8BB17C
:100D300080638BB9769A0E94852160938B037093B0
:100D40008C0380938D0390938E0367708FEF689F61
:100D5000B001112475956795759567957727709300
:100D600089006093880070938B0060938A00709371
:100D70008D0060938C000E9431060C94090580E27E
:100D800090E0909307018093060180917F0281118A
:100D90000EC00E94551481E080937F022FEF83EDF7
:100DA00090E3215080409040E1F700C0000064E6ED
:100DB00070E080E40E945B14909307018093060129
:100DC000892B09F04EC064E670E080E00E94B21406
:100DD0009093070180930601892B09F042C064E6D5
:100DE00070E080E00E94B2149093070180930601A6
:100DF000892BB9F564E670E08FE30E94B2149093FA
:100E0000070180930601892B61F50E94071564E6AE
:100E100070E080E40E945B149093070180930601C8
:100E2000892BF9F464E670E08CE00E94B214909390
:100E3000070180930601892BA1F464E670E080E04D
:100E40000E94B2149093070180930601892B49F404
:100E500064E670E08FE30E94B214909307018093E0
:100E600006010E94071580910601089510928B03D8
:100E700010928C0310928D0310928E0384E0806197
:100E800080938B0360918B0370918C0380918D0311
:100E900090918E030E9489210C9495219C013A9592
:100EA00021153F4138F5DC01AA27B270AC01442777
:100EB00054709C012227387094FF0FC090FF02C02D
:100EC00080E101C080E0AB2B09F08062452B09F086
:100ED0008064232B69F080680BC0892F8170AB2B55
:100EE00009F08260452B09F08460232B09F08860AB
:100EF000FB0109940895CF93DF93EC01805E910983
:100F0000089710F0209719F46BED77E102C062ECBE
:100F10007AE1CE010E944E078C2FDF91CF910C9485
:100F2000B416CF93DF93EC010E946017CE01805E70
:100F30009109089710F0209719F462EE77E102C04A
:100F400069EC7AE1CE01DF91CF910C944E07CF93FB
:100F5000DF93EC010E947B07CE01DF91CF910C94CF
:100F6000910781E0089581E008950C94B3071F93E1
:100F7000CF93DF9300D000D01F92CDB7DEB7498367
:100F80005A832091B80289819A81211112C0662367
:100F900049F00E942120182F682F89819A810E9490
:100FA000C41F03C00E94F41F182F69817A81812F0A
:100FB00004C00E94212069817A810F900F900F90C8
:100FC0000F900F90DF91CF911F910C947508FC0149
:100FD000408151816281738184810C94B7070E94A2
:100FE0005421811102C00E94F1210E94530B0C94E4
:100FF00089060C940B05282F2F7041F0822F90E06A
:101000002A3010F44D9608950697089587E290E0EF
:10101000089508950C94090881E008950C940C0833
:10102000CF93C82F0E940A088C2F0E940E08CF91E0
:10103000089508950E94EA1A0E9419082FEF84E388
:101040009CE0215080409040E1F700C000000C94EB
:1010500080230F931F93CF93DF93EC010E94E70748
:101060008C01BE010E94B5078823A9F1BE01C80109
:101070000E94C70B882379F1BE01C8010E94B812F3
:10108000882349F1BE01C8010E94F912882319F191
:10109000BE01C8010E9424148823E9F0BE01C801E2
:1010A0000E94DA118823B9F08A81882369F001153A
:1010B0008CE5180731F00E3D1C4531F40E94F121FA
:1010C0000AC00E941A0807C0CE01DF91CF911F917C
:1010D0000F910C94B10780E0DF91CF911F910F9198
:1010E000089580E090E00895089596E0799FF001DA
:1010F000112494E5899FE00DF11D1124E60FF11DE7
:10110000EE0FFF1FE055FE4F859194910895880FD3
:10111000991FFC01E850FB4F859194910895CF935E
:10112000DF930E9475080E94B009EC01811520E54B
:101130009207F0F5811530E4930708F0D2C0883E9D
:10114000910500F5803E910508F006C1883A9105A9
:1011500070F4853A910508F0A4C08130910509F436
:10116000FBC008F4F7C0049708F0F6C0F3C08F3B4B
:10117000910508F49EC0803C910508F4EBC0805CAA
:101180009109A2C0811540E2940758F4C11581E08D
:10119000D80708F0E1C0C03FD10508F4DBC0D06536
:1011A000DBC0811520E3920708F092C09F708CC0CD
:1011B000811535E5930708F044C0811544E594078F
:1011C00008F0A6C0C11582E5D80708F5C11521E5CC
:1011D000D20708F089C08C2F837021E030E002C074
:1011E000220F331F8A95E2F73C68CE0174E0969592
:1011F00087957A95E1F78370382BCF70C695C695A1
:1012000040E2C49FE0011124C22BD32BA5C02C2F98
:1012100026952695CE0183709927C115D34508F0F0
:1012200068C040E2249F90011124C1E0D0E002C0D8
:10123000CC0FDD1F8A95E2F72C2B3D2BE901DC68F2
:101240008BC081154AE59407A0F4C11589E5D8073C
:1012500008F06DC0C11526E5D20708F45EC0C115BF
:1012600038E5D30708F476C0DC2FCC27C06FD06AEE
:1012700073C081159B4508F46DC0C1158CE5D80776
:1012800008F465C0CE0190568115904208F062C006
:101290008D2F8F710E94440ADD27D0628F71D82B69
:1012A0005BC0C55AD0E0C150DE4FC881D0E0D064E9
:1012B00053C0C85AD0E0CC0FDD1FCF52DE4F09908B
:1012C000D881C02DD46448C00E948708EC0144C076
:1012D0009927D3FF03C0EC01D86C3EC0EC01D06C61
:1012E0003BC0DF70D06A38C0DC2FCC27C16FD06A1A
:1012F00033C040E2249F90011124C1E0D0E002C03D
:10130000CC0FDD1F8A95E2F7C22BD32BDA6824C0FD
:10131000D82FCC27C46FD06A1FC08C2F0E94440ADC
:101320008F71C82FD0E0DC2FCC27D06215C08C2F56
:101330008F700E94440A94E0D695C7959A95E1F77C
:10134000CF70D0E0DC2FCC27D069C82B05C0DD27BB
:10135000D06602C0C0E0D0E0CE01DF91CF91089509
:101360008238910569F1B0F48133910509F46DC0BB
:1013700048F48932910509F463C08A32910509F471
:1013800069C008958533910509F455C089339105E5
:10139000B9F00895833E910569F138F4803E9105D6
:1013A000B1F0823E910509F10895863E9105A9F1BB
:1013B000873E9105B9F1843E910509F064C023C0D0
:1013C0002091DB0320FD4FC021FD4DC00895809189
:1013D000DB0380FD44C08091DC0380FF44C080912A
:1013E000DB0384FD42C083EE4DC08091DB0382FFAE
:1013F00038C0F5CF8091DB0382FD33C08091DC03E0
:1014000080FD31C0ECCF8091DC0381FF32C0809140
:10141000DB0384FD2AC087EE35C08091DB0383FFA8
:1014200026C0F5CF8091DB0383FD21C08091DC03D2
:1014300081FD1FC0ECCF8091DB0385FD1CC01DC06A
:101440008091DB0385FD19C016C08091DB0386FD0A
:1014500016C017C08091DB0386FD13C010C089E35E
:1014600011C082EE0FC080EE0DC080E00BC086EE92
:1014700009C084EE07C089E205C085E303C08AE2A3
:1014800001C081E390E008959091DB0392FF0DC0CD
:10149000282F2871283019F4877F846006C0282FF0
:1014A0002471243011F48B7F886093FF0DC0282FA6
:1014B0002871283119F4877E846106C0282F247191
:1014C000243111F48B7E88612091DC0320FF0DC054
:1014D000382F3871383019F4877F816006C0382F73
:1014E0003171313011F48E7F886021FF0DC0282FBB
:1014F0002871283119F4877E816106C0282F217157
:10150000213111F48E7E886194FD877E0895CF93FA
:10151000C82F90E00E942A2F80938102909382022C
:10152000282FFC019BEF8E2F821B8C1710F49193B8
:10153000FACFCF9108950F931F93CF93DF9310921B
:10154000800250918102E52FF091820240E0A62FA7
:10155000B0E07BEFCAEFD0E09E2F951B9817D0F438
:1015600090819B3FA9F0292F30E0691728F08D0169
:10157000021B130B980106C08E01021B130B98016E
:101580002A0F3B1F2E31310514F0708301C041E05A
:101590003196E2CF40938002DF91CF911F910F915E
:1015A0000895CF93DF93109283025091810230917E
:1015B0008002DB01EC01E52FF091820290E08E2F9A
:1015C000851B841778F489916C91681741F06081CC
:1015D0006B3F21F420838C9331E001C091E0319680
:1015E0001196EDCF3093800290938302DF91CF91DB
:1015F0000895DF92EF92FF920F931F93CF93DF93A3
:1016000000D0CDB7DEB78C017B01D22E4A830E9479
:1016100024236AEF70E00E94F02E282F8091800230
:101620004A81882341F1622F842F29830E949B0ADB
:1016300029814A81DD2069F0B701C8010F900F9020
:10164000DF91CF911F910F91FF90EF90DF900C945D
:10165000D10A80918002882379F3809183028111DD
:10166000EBCF0F900F90DF91CF911F910F91FF90D3
:10167000EF90DF900895DD2081F3DECFCF93DF93ED
:1016800097FF0DC0FB012281222349F0EC010E944B
:10169000690BCE019F770E94AA0B0E94930B81E0F9
:1016A000DF91CF9108958CE090E00E94643090E04B
:1016B000A0E0B0E080938F0390939003A0939103F8
:1016C000B0939203089560918F038CE090E00C94A6
:1016D00078300E94A120809393030E94B4208091CF
:1016E0008F03813071F048F0823081F08430A1F4B2
:1016F00086EE0E94C81788E10DC082EE0E94B416E3
:101700000BC088E193E00E94A70706C082EE0E940A
:10171000B41687E50E94C8178FE39CE90197F1F79B
:1017200000C00000089580918F03813039F040F0AF
:10173000823031F0843051F488E206C08CE204C07B
:1017400082EE0E94601702C00E94C8178091930326
:101750000C94B1200F931F93CF93DF938C01CCE0B7
:10176000D0E0C8010C2E02C0969587950A94E2F746
:101770008F700E94FB070E94C8172497CC3F8FEF01
:10178000D80779F7DF91CF911F910F9108950F93AB
:101790001F93CF93DF93EC018B01FB0182818823A0
:1017A00019F1C33EFCE5DF07C1F050F4C13EECE5A2
:1017B000DE0781F0C23EFCE5DF07B1F481E010C036
:1017C000C43E8CE5D80759F0C53EECE5DE0761F470
:1017D00084E006C010928F0305C082E001C083E060
:1017E00080938F030E94630BB801CE01DF91CF91EC
:1017F0001F910F910C943E0BAF92BF92CF92DF924C
:10180000FF920F931F93CF93DF93D62E372FE82F9E
:10181000F0E0711106C0E15FF94F6491762F862FD9
:1018200075C0C72FD0E0E15FF94F2491F22E022F4F
:1018300010E046E0649FC0011124EFEFF0E0BF012B
:101840000E94F02EAB016BEA6403C001659F900D0E
:1018500011248D0D911D8D0D911D982F990F890FBC
:10186000DF01AC1BBD0B0A9FB0010B9F700D1A9FCF
:10187000700D1124972F839FD0011124AB2FBB270C
:101880006F01CA1ADB0A0C9DD0010D9DB00D1C9D85
:10189000B00D11245F01A81AB108AC9E6001AD9E85
:1018A000D00CBC9ED00C1124CD2DDD27EC1BFD0BE4
:1018B0000E9FE0010F9FD00D1E9FD00D1124ED2F24
:1018C0004230510591F04CF441155105E1F04130A1
:1018D0005105B9F4E22F2B2F16C04430510569F0A1
:1018E00044F04630510579F00CC0E22F272F9D2F90
:1018F0000AC0272F9F2DEB2F06C0E72F922F2D2FE9
:1019000002C0E72F9B2F6E2F722F892FDF91CF916F
:101910001F910F91FF90DF90CF90BF90AF900895EF
:10192000FC01828120813181922F821708F4982F47
:10193000391708F4932F9383391B3183291B208394
:10194000891B828308950895CF93DF93762FE90151
:10195000682F842F0E94FC0B798368838A831B8203
:10196000DF91CF9108950F931F93CF93DF93EC01F5
:1019700000E010E080910A01282F30E002171307E1
:101980001CF5909187029801290F311D220F331FFA
:10199000220F331F27563C4F869590E04C81081745
:1019A00019071CF4442331F002C0411103C04091D7
:1019B000970301C040E060919603809195030E94D7
:1019C000A40C0F5F1F4FD6CF0E94DC052C8130E0A6
:1019D0002F5F3F4F217033272C83DF91CF911F91D1
:1019E0000F9108950F931F93CF93DF938C01FC0108
:1019F0008481958101968170992795838483C0E0C5
:101A0000D5E580910A01C817F0F42091870230E0F3
:101A10002C0F311D220F331F220F331F27563C4F2F
:101A20004C2F4695F80184819581840F911D81701A
:101A300040919703609196038D9F802D11240E9401
:101A4000A40CCF5FDECFDF91CF911F910F910C944B
:101A5000DC050F931F93CF938091870290910B0128
:101A6000891760F424E0829FF0011124E756FC4FAF
:101A700011821082128213828F5FF2CFC0E06091D8
:101A80000A01C61790F50C2F10E070E0C8010E9403
:101A9000042FE0918702E80F80918502082E000C48
:101AA000990BF0E0EE0FFF1FEE0FFF1F081719074D
:101AB000A4F020910901022E000C330B20173107EE
:101AC00064F09F0127563C4F409197036091960325
:101AD000809195030E94A40C06C0E756FC4F11822A
:101AE000108212821382CF5FCACF0E94DC05209140
:101AF000080180918502820F8093850290910901EF
:101B0000920F9093090119165CF4082E000C990BA2
:101B100040910A0150E041505109841795071CF08B
:101B2000219520930801CF911F910F910895AF92B5
:101B3000BF92CF92DF92EF92FF920F931F93CF93BA
:101B4000DF93FC01828180FF02C00FEF01C001E042
:101B500010E03FE0A32E80910A01181708F043C05F
:101B6000C12ED12C80918702E601C80FD11DCC0F68
:101B7000DD1FCC0FDD1FC756DC4F198218821A8279
:101B80001B8224E0E22EF12CB12C809186028B0D79
:101B900080312CF06A2D0E94E22E892F05C087FF2C
:101BA00003C090910A01890F082E000C990BC816EA
:101BB000D90691F4809197038E9DA0018F9D500DC1
:101BC000112455954795559547959E01609196032B
:101BD000809195030E94A40CB00EF1E0EF1AF10879
:101BE000A1F61F5FB8CF0E94DC058091860201300C
:101BF00031F4811102C080910A01815007C090E048
:101C0000019660910A0170E00E94042F8093860281
:101C1000DF91CF911F910F91FF90EF90DF90CF90C8
:101C2000BF90AF900895FF920F931F93CF93DF93D0
:101C3000EC01F12C0FEF10E060910A01F616E0F4D0
:101C40002091870230E02F0D311D220F331F220F0C
:101C5000331F27563C4F70E0C8010E94042F962F77
:101C60008C814091970360919603F99E800D112419
:101C70000E94A40CF394E0CF0E94DC059A818C8131
:101C800090FF02C08F5F01C081508C83DF91CF91A4
:101C90001F910F91FF90089580919403282F26950E
:101CA00030E02115310519F48170826005C02532BC
:101CB000310524F08170886480939403089588E04E
:101CC00090E00C946C30CF93DF9300D000D0CDB770
:101CD000DEB7AB01BC0149835A836B837C830E94CE
:101CE0004C0E49815A816B817C8188E090E00F9095
:101CF0000F900F900F90DF91CF910C948A30E4E910
:101D0000F3E083E0808311828FEF828383831482E8
:101D100060817181828193810C94630E8091940320
:101D200080FF02C08695089580E00895E4E9F3E01D
:101D300080818E7F808360817181828193810E9406
:101D4000630E109290022FEF80E792E021508040C6
:101D50009040E1F700C000000C94DC05E4E9F3E0FA
:101D600080818E7F8083109290022FEF80E792E037
:101D7000215080409040E1F700C000000C94DC0549
:101D800080919803833018F48F5F8093980360915B
:101D900094037091950380919603909197030C940E
:101DA000630E80919803882319F0815080939803E3
:101DB000609194037091950380919603909197039D
:101DC0000C94630E9091940390FF14C0909187023D
:101DD00020910B01921760F434E0939FF0011124DD
:101DE000E756FC4F81836083428313829F5FF2CF6B
:101DF0000C94DC050895CF93DF9300D000D0CDB7CD
:101E0000DEB79091940390FF0AC09E012F5F3F4F71
:101E10000E94A40C4B8169818A810E94E20E0F907E
:101E20000F900F900F90DF91CF910895CF93DF9394
:101E3000EC01EC81F0E0E65FFA4F4491E4E9F3E075
:101E4000628181810E94FB0E8C818F5F8C83DF9188
:101E5000CF910895CF93DF93EC01E4E9F3E0438160
:101E600062818C810E94FB0E8C818F5F8C83DF915D
:101E7000CF910895AF92BF92CF92DF92EF92FF92EF
:101E80000F931F93CF93DF9300D000D0CDB7DEB771
:101E9000182FF62E042FE22E9091940390FF6DC020
:101EA000E92FE695AE2FB0E0AE5FBD4F8C918093E9
:101EB0008F029E7F923061F49E012F5F3F4F812FF2
:101EC0000E94A40C4B8169818A810E94E20E43C06A
:101ED000823019F4009197033EC0863019F41091B6
:101EE000950339C08930D9F38931A9F5E9518E2F8D
:101EF0008170D82EE695F0E0E65FF94FA590B4909A
:101F0000C12CBB2460910A01C61618F5EC2DF0E037
:101F1000EA9DC001EB9D900DFA9D900D112470E09B
:101F20000E94F02E812FD11002C0860F01C0861BA7
:101F3000909187029F01290F311D220F331F220F1D
:101F4000331F27563C4F402F6F2D0E94A40CC39483
:101F5000D9CF0E94DC0510939503F092960300936D
:101F60009703EE2051F06091940370919503809156
:101F70009603909197030E94630E0F900F900F901D
:101F80000F90DF91CF911F910F91FF90EF90DF9015
:101F9000CF90BF90AF900895E4E9F3E09181282FAE
:101FA000438162818CE0890F0C943A0F81E00C949C
:101FB000CC0FE4E9F3E09181282F4381628184EF23
:101FC000890F0C943A0F81E00C94D90FE4E9F3E007
:101FD00062812FEF620F08F46FEF282F4381818118
:101FE0000C943A0F81E00C94E60FE4E9F3E062818F
:101FF0002FEF621B08F460E0282F438181810C944D
:102000003A0F81E00C94F50FE4E9F3E043812CE012
:10201000420F08F44FEF282F628181810C943A0F10
:1020200081E00C940410E4E9F3E043812CE0421BCE
:1020300008F440E0282F628181810C943A0F81E0FE
:102040000C94131020E00C943A0F0F931F93CF932E
:10205000DF9300D000D0CDB7DEB78C018091840231
:1020600081110AC09E012F5F3F4F4FEF6FEF0E941B
:10207000A40C8A8180938402F8018481813051F01C
:1020800028F0823061F4409184020AC08091840279
:1020900040E007C06091840240E080E003C040E07F
:1020A00080E060E00E94E20EF801248130E0C90186
:1020B000019663E070E00E94042F84830F900F90DC
:1020C0000F900F90DF91CF911F910F910895609124
:1020D0009403669570E04BE050E08CE091E00E9444
:1020E0005730892B19F481E0809390020E942423B9
:1020F000909389028093880208959091940390FFB1
:1021000035C09170811102C0926006C0853210F016
:10211000986402C0880F982B90939403662351F023
:102120006091940370919503809196039091970329
:102130000E94630E60919403669570E04BE050E05E
:102140008CE091E00E945730892B19F01092900298
:1021500002C00E94671081E080938B024091970338
:1021600060919603809195030C9422100895682F36
:1021700090919403969581E0890F853208F081E073
:102180000C947D1081E00C94B710682F909194030B
:1021900096958FEF890F09F484E20C947D1081E00D
:1021A0000C94C51061E00C947D10E4E9F3E08081AB
:1021B0008160808386950C94D2108091940380FD79
:1021C0000C94960E0C94D51060E00C947D108091C8
:1021D0008E0281112EC00E945421811104C00E94E0
:1021E000F1210E947F0E0E945F0E60939403709312
:1021F000950380939603909397036E7F61F40E94FA
:102200007F0E0E945F0E60939403709395038093FA
:102210009603909397030E944C0E10929002809127
:10222000940380FF03C086950E94E41081E08093B0
:102230008E020895E4E9F3E08081816080838695D1
:102240000C94E4101092900208950F931F93CF9373
:10225000DF9380919002882309F48CC080918F02D3
:10226000E0919403E695E81BE0938A02823049F4FA
:10227000F0E0EA5FFA4FE491CE2FD0E006E11FE0F4
:1022800049C0863049F4F0E0ED5FFA4FE491CE2F7B
:10229000D0E00AE21FE03EC0893051F4E695F0E05C
:1022A000E050FB4FE491CE2FD0E003E11EE032C0BE
:1022B0008F3051F4E695F0E0E350FB4FE491CE2FE0
:1022C000D0E007E91DE026C0853149F4F0E0E65092
:1022D000FB4FE491CE2FD0E009E21DE01BC0883116
:1022E00081F0833239F4E8EFF4E0C591D49105E24E
:1022F00010E110C0843251F4C4EFD1E003EB1CE0D4
:1023000009C0C8EED3E002EF1CE004C0C0EDD7E086
:1023100003EA1CE080918B02882389F010928B02E3
:102320000E9424239E0120953095820F931F909345
:1023300089028093880210928D0210928C02809103
:102340008802909189020E9430238C179D0790F09B
:10235000E0918802F0918902CE0FDF1FD0938902AD
:10236000C093880288E892E0F801DF91CF911F9135
:102370000F910994DF91CF911F910F9108958823B8
:1023800011F0FA0101C0FB010994CF93DF93C82F2C
:10239000D62F0E948E0E8C1740F00E948E0E8D1745
:1023A00020F4DF91CF910C94C2108C2FDF91CF914C
:1023B0000C94D2100F931F93CF93FB01C281CC23B7
:1023C00009F463C08C010E94A1208272F801E25CD2
:1023D000FC45E431F10508F059C0E35AFF4F0C9475
:1023E000182F0E94DD1006C04FEC50E162EC70E146
:1023F0000E94BF11C0E04AC042EC50E16FEC70E1B6
:10240000F7CF43EE5FE066ED7FE0F2CF46ED5FE0B1
:1024100063EE7FE0EDCF41E050E162EF7FE0E8CF97
:1024200042EF5FE061E070E1E3CF4FE150E160E156
:1024300070E1DECF40E150E16FE170E1D9CF41EDD5
:102440005EE060EC7EE0D4CF40EC5EE061ED7EE0EB
:10245000CFCF81E017C065E082E010C068E086E081
:102460000DC06EE089E00AC064E18FE007C067E15B
:1024700085E104C088E106C062E289E10E94C511DD
:10248000B9CF83E20E94D210B5CFC1E08C2FCF919B
:102490001F910F9108950F931F93CF93DF93C62F32
:1024A000D42F022FFC0182818823C9F0609393020C
:1024B0000E942423909392028093910280E28C0FD9
:1024C000883008F050C0C77081E001C0880FCA95FD
:1024D000EAF7DF91CF911F910F910C94DB171091C8
:1024E0009302161330C080919102909192020E9443
:1024F0003023883C910538F5C0E2CD0F1D17B9F0A7
:1025000080E2810F883040F4177081E001C0880FAD
:102510001A95EAF70E94E217C83048F481E09D2F2F
:10252000977001C0880F9A95EAF70E94DB17802FF9
:102530000E94C817C830B8F4D77081E001C0880F76
:10254000DA95EAF70AC080E28C0F883060F4C77031
:1025500081E001C0880FCA95EAF7DF91CF911F9102
:102560000F910C94E217DF91CF911F910F91089575
:102570009C01CB01233F4CE53407F9F078F4283D6A
:10258000FCE53F07B9F0293D4CE5340711F1273D43
:102590003C4531F526E241EE61EE1EC0253FFCE5EB
:1025A0003F0799F070F0263F3C45D1F427E245EE15
:1025B00066EE12C027E245EE0EC026E241EE60EE66
:1025C0000BC027E245EE64EE07C026E241EE62EE64
:1025D00003C028E241E065EE0E944B1280E00895BE
:1025E000FC018281882319F010929302089581E002
:1025F0000895CF93DF93EC01FB018281882309F4D6
:102600001FC1C230FCE5DF0708F41BC1C6319CE5E1
:10261000D90738F09E012A5F3C452930310508F082
:1026200010C10E9467219093DC038093DB03C031CB
:10263000ECE5DE0709F4C3C008F041C0C8308CE502
:10264000D80709F49AC0F0F4C430ECE5DE0709F4C9
:1026500087C068F4C2308CE5D80709F477C0C3306E
:10266000DC4509F0E3C08091DB03826076C0C630B0
:10267000ECE5DE0709F46EC008F07BC08091DB0357
:1026800088606BC0CC308CE5D80709F485C068F44D
:10269000CA30ECE5DE0709F474C008F079C00E9486
:1026A000EA1A8091DB03806858C0CE308CE5D807E9
:1026B00009F476C008F07FC08091DB038BC0CB3F6C
:1026C000ECE5DE0709F44FC018F5C3318CE5D807F7
:1026D00009F47DC078F4C131ECE5DE0709F473C07C
:1026E000C231DC4509F0A2C00E94EA1A8091DB03E6
:1026F0008F7733C0C5318CE5D80709F472C008F470
:1027000086C0CA3FDC4509F091C08091DC033EC021
:10271000CF3FFCE5DF0709F45FC058F4CD3F9CE5EF
:10272000D90709F444C008F43FC08091DC038260FB
:102730002DC0C130FDE5DF0709F475C008F45DC0A8
:10274000C230DD4509F072C080E06EC08091DB03CD
:10275000816003C08091DB0380618093DB0366C0EE
:102760008091DB0311C08091DC0382608093DC03E5
:102770005DC08091DB038062F0CF8091DB038064D9
:10278000ECCF8091DB0388608460E7CF8160EECF7F
:102790008091DB038E7FE1CF8091DB038D7FDDCFE6
:1027A0008091DB03877FD9CF8091DC0318C08091B3
:1027B000DC038D7FDBCF8091DB038F7ECECF8091DA
:1027C000DB038F7DCACF8091DB038F7BC6CF8091E7
:1027D000DB03877F8B7FC1CF8091DC038D7F8E7F72
:1027E000C5CF8091DB0382FB222720F991E092275D
:1027F00090FB82F990FB83F9B0CF8091DC03982F96
:10280000909591708E7F892B90FB81F9AFCF0E94BC
:10281000EA1A8091DB0387FB222720F991E09227B7
:1028200090FB87F99ACF81E00E94F3218091DB032E
:102830009091DC030E9478210E94EA1A80E001C096
:1028400081E0DF91CF910895CF93DF9386319C454E
:1028500041F5EB010E94A120282F8A8140911701A8
:1028600050911801882379F02A7A91E009F490E0D8
:1028700090939402911102C069E201C065E3CA011C
:102880000E945D220AC080919402811102C069E217
:1028900001C065E3CA010E9468220E94F02080E026
:1028A00001C081E0DF91CF9108951092B9008CE0D2
:1028B0008093B8000895EF92FF920F931F93CF93E8
:1028C000DF93182FEB011092BC0084EA8093BC00C8
:1028D0000E9424237C019091BC0097FD0EC0CF3F45
:1028E0008FEFD807C1F30E9424238E199F098C17FC
:1028F0009D0788F38EEF9FEF2EC09091B900987FCF
:10290000983041F09091B900987F903119F08FEF95
:102910009FEF21C01093BB0084E88093BC000E940D
:1029200024238C019091BC0097FD0CC0CF3F8FEF0A
:10293000D807C1F30E942423801B910B8C179D079D
:1029400088F3D8CF8091B900887F883111F0803426
:10295000F1F680E090E0DF91CF911F910F91FF9011
:10296000EF9008950F931F93CF93DF93EB01809324
:10297000BB0084E88093BC000E9424238C019091CA
:10298000BC0097FD0EC0CF3F8FEFD807C1F30E9468
:102990002423801B910B8C179D0788F38EEF9FEFEC
:1029A0000CC02091B900287F81E090E0283211F41A
:1029B00080E090E0919581959109DF91CF911F91F1
:1029C0000F9108950F931F93CF93DF93EC0184E849
:1029D0008093BC000E9424238C019091BC0097FD41
:1029E0000EC0CF3F8FEFD807C1F30E942423801B76
:1029F000910B8C179D0788F38EEF9FEF03C080919A
:102A0000BB0090E0DF91CF911F910F91089584E971
:102A10008093BC00089590939A0280939902089540
:102A2000E0919902F0919A02309721F00190F081A3
:102A3000E02D099480E00895E0919902F0919A02C6
:102A4000309799F020912801222359F02091DB033F
:102A500027FF07C0DC012C9111962C93119725E0DC
:102A60002C930280F381E02D09940895E09199025E
:102A7000F0919A02309739F022E0DC012C93048027
:102A8000F581E02D099408952091970230919802E4
:102A90008217930771F09093980280939702E091C8
:102AA0009902F0919A02309721F00680F781E02D8B
:102AB0000994089520919502309196028217930708
:102AC00071F09093960280939502E0919902F091B3
:102AD0009A02309721F00084F185E02D0994089541
:102AE00085B7806885BF85B7806885BF08950895DC
:102AF00008950C94781508950C947B150E94701518
:102B00000E9477150C94791581E008950E941B238B
:102B10000E940D050E94B2230E94E7100C947C15C0
:102B2000BF92CF92DF92EF92FF920F931F93CF93BA
:102B3000DF93CDB7DEB72B970FB6F894DEBF0FBE8D
:102B4000CDBF0E943A050E948415811111C08FEFFC
:102B500089838A831B820E9424238160782F9D832E
:102B60008C8349815A816B818D810E94651642C098
:102B70008CE9C82E82E0D82E00E010E0B02E802F25
:102B80000E94A105F601E1906F01E82631F40F5F84
:102B90001F4F0E30110591F7DACF9091570391FF37
:102BA00004C08B870E94A7058B8590E0FF24F394D7
:102BB0002F2D2E21D1F09E83BF828F2191E009F429
:102BC00090E098870E9424238160782F9A878987D4
:102BD0004E815F8168858A850E946516F801E456FA
:102BE000FD4F8081F826F08205C09F5FFF0C963074
:102BF000F9F6CDCF0E9425110E94442510919B0229
:102C00000E9410151817A9F00E94101580939B02BE
:102C10002B960FB6F894DEBF0FBECDBFDF91CF91DC
:102C20001F910F91FF90EF90DF90CF90BF900C9489
:102C300010082B960FB6F894DEBF0FBECDBFDF9104
:102C4000CF911F910F91FF90EF90DF90CF90BF90A9
:102C50000895DC0111962C9111978C91682F70E0EA
:102C600041E050E001C0440F8A95EAF712968C913A
:102C7000129730E0882329F08091BA028823E9F086
:102C800006C0F901E655FD4F90819423B1F086E02E
:102C9000829FF001839FF00D1124E60FF71FEE0FC6
:102CA000FF1FE75DFE4F808191818D939C93F90119
:102CB000E655FD4F8081482B06C0F901E655FD4FD2
:102CC00040958081482340830895CF93DF93CDB70B
:102CD000DEB72B970FB6F894DEBF0FBECDBF942F93
:102CE0004F83252F588769877A878B874A855B852D
:102CF000452B21F02F3F09F59F3FF9F4DE01119696
:102D000086E0FD0111928A95E9F785E0FE0137968C
:102D100001900D928A95E1F749815A816B817C81FE
:102D20008D819E810E94941D2B960FB6F894DEBF74
:102D30000FBECDBFDF91CF910895CE0107960E94BF
:102D40002916DCCFFC01808191810E94622092953E
:102D50009F70963041F48091BA0291E08927809368
:102D6000BA029093B9020895CF93DF931F92CDB723
:102D7000DEB7882309F4A0C0682F8238C1F40E940E
:102D8000101581FD99C069E3809117019091180198
:102D90000E945D220E94F0202FEF81EE94E02150EE
:102DA00080409040E1F700C0000069E319C083381B
:102DB00011F50E94101580FD7FC063E58091170119
:102DC000909118010E945D220E94F0202FEF81EE69
:102DD00094E0215080409040E1F700C0000063E59E
:102DE00080911701909118010E9468220F90DF9145
:102DF000CF910C94F0208438C1F40E94101582FD0C
:102E00005BC067E480911701909118010E945D22D8
:102E10000E94F0202FEF81EE94E0215080409040FE
:102E2000E1F700C0000067E4DBCF8CEF860F813A4A
:102E300070F4862F69830E944D27698181113CC0FF
:102E400080911701909118010E945D22CFCF80E2FE
:102E5000860F883048F4677081E001C0880F6A955A
:102E6000EAF70E94A420C2CFEBE5E60FE33050F46E
:102E7000F0E0EB5AFD4F808190E00F90DF91CF9111
:102E80000C944415E8E5E60FE73160F4F0E0EE0F4E
:102E9000FF1FE95DFD4F808191810F90DF91CF9100
:102EA0000C945A15603F40F0862F0E944C240F90DE
:102EB000DF91CF910C9439250F90DF91CF91089538
:102EC000882309F464C0823879F40E94101581FFC8
:102ED0005EC069E380911701909118010E945D2204
:102EE0000E94F02069E310C08338B1F40E941015ED
:102EF00080FF4DC063E580911701909118010E94F9
:102F00005D220E94F02063E58091170190911801E5
:102F10000E9468220C94F020843879F40E941015E5
:102F200082FF35C067E480911701909118010E94DB
:102F30005D220E94F02067E4E7CF9CEF980F913A62
:102F400010F4682FE1CF90E2980F983050F487701A
:102F500091E001C0990F8A95EAF7892F0E94AA2073
:102F6000D9CF9BE5980F933020F480E090E00C944B
:102F7000441598E5980F973120F480E090E00C9488
:102F80005A15803F20F00E94B4240C9439250895EE
:102F9000CF93C82F0E94B416C93349F42FEF87EEA0
:102FA00093E0215080409040E1F700C000008C2F5A
:102FB000CF910C946017882321F00E94A4200C94D8
:102FC000F0200895882321F00E94AA200C94F0207C
:102FD0000895BF92CF92DF92EF92FF920F931F93CB
:102FE000CF93DF937C01062FC72FFC01158112952B
:102FF0001F70D281D1110E94C4200E949A20882380
:1030000079F0DD2369F080E2800F883048F082E0BB
:103010000E943B210E949A2091E0B82EB92601C05F
:10302000B12CCC2EC2948FE0C822D12CF601EF58DF
:10303000FF4F0C94182F8C2F807FCF70882311F0B6
:10304000C295C07FDD2399F0CC2309F4C7C180E28B
:10305000800F883010F0011104C08C2F0E94A42032
:1030600003C08C2F0E94B7200E94F020B7C1802F90
:103070000E946017CC2309F42DC280E2800F8830B3
:1030800010F0011104C08C2F0E94AA2003C08C2FC5
:103090000E94BD200E94F0201DC28C2F807FCF7027
:1030A000803211F0C295C07F002319F00130C9F0C1
:1030B00024C0DD2371F0112341F0113031F40E945E
:1030C000D7208C2B0E94DD2005C20E94D7208C2B9C
:1030D0000EC0112319F0113009F4FCC10E94E62042
:1030E0001EC0DD2339F0123008F0F4C18C2F0E948D
:1030F000DB17F0C11111EEC112C0DD2319F011234D
:10310000A9F36CC1112359F0093309F078C1FFEF1D
:1031100027EE83E0F15020408040E1F76EC18C2F14
:103120000E94E217D7C18C2F86958695837090E018
:10313000009719F0019761F0CDC1DD2321F0802FB8
:103140009C2F937002C080E090E00E944415CDC196
:10315000DD2321F0802F9C2F937002C080E090E04F
:103160000E945A15C2C1DD23F9F0053F51F0063F18
:1031700071F0043FA9F48091D5039091D60381604A
:103180000BC08091D5039091D603826005C08091D9
:10319000D5039091D60384609093D6038093D50392
:1031A000802F0E944C241EC0053F51F0063F71F055
:1031B000043FA9F48091D5039091D6038E7F0BC074
:1031C0008091D5039091D6038D7F05C08091D50362
:1031D0009091D6038B7F9093D6038093D503802F55
:1031E0000E94B4240E94392580C18C2F837009F07D
:1031F00049C0D11176C1402F429546954770440F82
:10320000440F602F6F70862F90E0A0E0B0E0042E96
:1032100004C0880F991FAA1FBB1F0A94D2F704FF8E
:1032200010C00FE010E020E030E004C0000F111FDC
:10323000221F331F4A95D2F700951095209530959F
:1032400003C000E010E09801C695C695C370D0E0B9
:10325000BC01CD01602B712B822B932BC230D10589
:1032600059F0C330D10559F0219719F00E94D91EA9
:1032700038C10E94C71E35C10E94EB1E32C10E9498
:10328000C51E2FC1DD2319F08C2F817001C08695DA
:10329000882309F426C1402F429546954770440F74
:1032A000440F602F6F70862F90E0A0E0B0E0042EF6
:1032B00004C0880F991FAA1FBB1F0A94D2F704FFEE
:1032C00010C00FE010E020E030E004C0000F111F3C
:1032D000221F331F4A95D2F70095109520953095FF
:1032E00003C000E010E09801C695C695C370D0E019
:1032F000BC01CD01602B712B822B932BC230D105E9
:1033000059F0C330D10559F0219719F00E949F1F41
:10331000E8C00E948D1FE5C00E94B11FE2C00E945C
:10332000001FDFC0CF70DD2339F08C2F0E94261FD5
:10333000802F0E94DB17D5C0802F0E94E2178C2FB0
:103340000E94471FCEC0023FF9F028F4003F41F031
:10335000013F99F03FC0033FF1F0043F31F13AC023
:10336000DD2339F01111B6C08C2F8F710E946C1FB4
:10337000B1C0123008F0AEC0F7CFDD2339F08C2F8A
:103380008F710E94261FA6C0DD23C9F38C2F8F7179
:103390000E94471F9FC0DD2329F08C2F8F710E9450
:1033A000111F98C00E940C1F95C0DD2349F0CF71FA
:1033B0008C2F0E94261F63E08C2F0E9426218AC03A
:1033C00081E00E943B21123008F484C082E00E9418
:1033D0003B2180C0DD2331F0112389F2802F0E9430
:1033E000B41678C0112391F2093349F49FEFE7EE48
:1033F000F3E09150E040F040E1F700C00000802F82
:103400000E94601767C04C2F4F70602FC7010E9449
:1034100071080E94381E69C0023FB1F028F4003FD5
:1034200049F0013FF9F028C0043FB9F058F0053FDA
:1034300071F022C0DD2309F447C09091BA0281E007
:10344000892708C081E0D827D093BA023DC0D111A6
:103450003BC081E08093BA0237C0D11135C01092D1
:10346000BA0232C0DD2329F08091B902882329F302
:1034700029C0112311F328C08091B9021123C1F092
:10348000882341F09091BA0281E089278093BA02A3
:103490001092B902802FDD2319F00E94B41614C0D7
:1034A0000E94601786E0F70111928A95E9F70CC037
:1034B000882351F0D11108C09091BA0281E0892788
:1034C0008093BA021092B9024C2F4F70602FC7013F
:1034D0000E947408F8E0CF1AD10824E0C216D10483
:1034E00020F40E9410150E941008BB20D1F00E9409
:1034F000962080FD16C0F70112820E9490200E9443
:10350000261FC7010E949B1A0E949020DF91CF9135
:103510001F910F91FF90EF90DF90CF90BF900C9490
:10352000471FDF91CF911F910F91FF90EF90DF9098
:10353000CF90BF9008950F931F93CF93DF93EC012B
:10354000888199812B813C81232BB9F09F3F11F415
:103550008F3F99F0CE010E942908882371F068817D
:1035600079818A810E946D208C010E94C31F0E9474
:10357000C41EB801CE010E94E917DF91CF911F91BF
:103580000F910895882321F00E94B7200C94F02019
:103590000895882321F00E94BD200C94F020089506
:1035A0000E94C4200E94D4200E94F0200E94DF25A7
:1035B0000E94392580E090E00E94441580E090E070
:1035C0000C945A1580911701909118010E94732252
:1035D0000C94D01A0E94B4200C94E21AE92FE295C0
:1035E000EF70F0E03297EE30F105B0F4EF57FF4F97
:1035F0000C94182F803F91F018F4883E68F40EC0A8
:10360000843F51F40BC0883E48F0813F29F406C046
:1036100093FB882780F9089580E0089581E008955C
:103620000E9462200E94EE1A0895CF93DF9300D08B
:1036300000D01F92CDB7DEB70F900F900F900F9074
:103640000F90DF91CF910895CF93DF9300D000D0FA
:1036500000D0CDB7DEB726960FB6F894DEBF0FBE0A
:10366000CDBFDF91CF9108951F93CF93DF93C0918A
:10367000BB0216E08091BC02C81799F0D0E01C9FF5
:10368000F0011D9FF00D1124E354FD4F4081518145
:1036900062817381848195810E94241B2196C77069
:1036A000E9CFDF91CF911F9108954091ED025091A4
:1036B000EE026091EF027091F0028091F102909120
:1036C000F2020C94241B8091F20282958F7009F013
:1036D00054C08091EF02882309F44FC08091BB024F
:1036E000A091BC026091ED027091EE024091F00257
:1036F0005091F102B6E08A1709F43FC090E04115FD
:103700005105C1F17F3F11F46F3FA1F1B89FF00166
:10371000B99FF00D1124E354FD4F218172132AC08B
:103720002081621327C02281211124C0238134818A
:103730002417350710F421503109241B350B283C80
:103740003105C0F42091F2022F7020612093F20223
:1037500026E0289FF001299FF00D1124EE53FD4F24
:1037600080818F70806180838DEE92E00E949B1A31
:103770000C94341B01968770BECF0895CF92DF92D0
:10378000EF92FF920F931F93CF93DF93CDB7DEB7E6
:1037900062970FB6F894DEBF0FBECDBF8C0185E0F7
:1037A000F801DE011D9601900D928A95E1F7D8018E
:1037B0004C9111965C91119712966C9112971396F9
:1037C000CD90DC9014973091ED027091EE028091D3
:1037D000F0029091F102009709F46BC17F3F19F458
:1037E0003F3F09F466C1E090EF02EE2009F4C0C04B
:1037F0002091F202C816D90628F0F601E81BF90B51
:10380000CF0104C0809590958C0D9D1DFF24F394ED
:10381000883C910578F0F12C207F09F0C6C07C2D02
:10382000D98AC88A89890E94151B8DEE92E00E9470
:103830009B1AB1C0822F807F09F046C0751314C057
:10384000341312C0611110C02F7020612093F20256
:103850000E94551B8DEE92E00E949B1A8091F2020D
:10386000D80115968C932EC0CD2819F15F3F11F425
:103870004F3FF9F0F62E61111CC08091BB022091E0
:10388000BC0236E0821709F45AC090E0389FF0017C
:10389000399FF00D1124E354FD4F7181571306C079
:1038A0007081471303C07281711103C00196877044
:1038B000E9CFF62E662309F427C18091F2028160D8
:1038C0008093F202F12C20C1751308C0341306C096
:1038D000611104C08091F202D801C3C04D875E8798
:1038E0008D859E856A8B0E94101B6A898823E1F171
:1038F0006623D1F12091F202822F82958F7090E0A1
:10390000029774F08091ED029091EE0298878F8378
:103910001986DB86CA862C87CE0107960E949B1AE1
:1039200086E0F801ADEEB2E001900D928A95E1F7E4
:103930000E94631B0E94551BFF24F394E5C04D8732
:103940005E878D859E850E946220292F22952F708B
:1039500030E0223031050CF0CBC09F7009F0C5C0BB
:10396000805E883008F4D0C0C8010E949B1AE4CF62
:10397000C816D90608F453C0F601E81BF90BCF01AD
:10398000883C910508F450C0F12C7C2DD98AC88A56
:1039900089890E94151BEDEEF2E086E0DF011D92A1
:1039A0008A95E9F70E94551BAFC0751314C03413F4
:1039B00012C0611110C08091F202F8018583C80124
:1039C0000E949B1A86E0EDEEF2E0DF011D928A95DF
:1039D000E9F7FE2C99C04D875E878D859E856A8BA1
:1039E0000E94101B6A89882309F4BECF662309F45C
:1039F000BBCF2091F202822F82958F7090E00297C8
:103A00000CF48ECF8091ED029091EE029A8389831F
:103A10001B82DD82CC822E83CE0101967FCF8095E2
:103A200090958C0D9D1DACCFF62E662309F49CCF8E
:103A300075132EC034132CC02091F20220FD1FC03C
:103A4000822F82958F70D9F0D80115962C931597F7
:103A50008F3049F08F5F982F9295907F822F8F70D3
:103A6000892B15968C93C8010E949B1A86E0F80159
:103A7000ADEEB2E001900D928A95E1F793CF86E02A
:103A8000F801ADEEB2E001900D928A95E1F73CC0ED
:103A90004D875E878D859E850E94101B811140CFCA
:103AA0008091F20281608093F202C8010E949B1A09
:103AB0002BC0662309F458CF4D875E878D859E8580
:103AC0000E94101BF82E882309F44ECF86E0F801DF
:103AD000ADEEB2E001900D928A95E1F78DEE92E0A5
:103AE0000E94A2160E94631B5DCF811139CF0CC0CA
:103AF000243031050CF038CF9F7009F431CFF80134
:103B00009581907F09F02CCF8F2D62960FB6F89497
:103B1000DEBF0FBECDBFDF91CF911F910F91FF9000
:103B2000EF90DF90CF9008951F93CF93DF93CDB7A1
:103B3000DEB72C970FB6F894DEBF0FBECDBF4F8314
:103B4000588769877A878B879C87CE0107960E9462
:103B5000BE1B882369F08F8198852A853B85232B9E
:103B6000F1F19F3F09F063C08F3F09F060C037C09B
:103B700086E0FE013796DE01119601900D928A953E
:103B8000E1F76F817885EA85FB85309741F17F3FCA
:103B900011F46F3F21F12091BC0230E0C901019680
:103BA000877099274091BB0250E08417950709F46C
:103BB00047C069837A83FD83EC8396E0929FD001AE
:103BC000939FB00D1124A354BD4FFE013196019077
:103BD0000D929A95E1F78093BC020E94341B16E087
:103BE0008091BB029091BC028917C1F1189FC0015E
:103BF000112483549D4F0E94BE1B882379F1E091CC
:103C0000BB021E9FF0011124E354FD4F40815181FE
:103C100062817381848195810E94241B8091BB0203
:103C200090E00196877099278093BB02D9CF4F818E
:103C3000588569857A858B859C850E94241BCFCF0A
:103C40000E94EA1A1092BC021092BB02EDEEF2E062
:103C500086E0DF011D928A95E9F7C1CF2C960FB659
:103C6000F894DEBF0FBECDBFDF91CF911F910895B5
:103C7000EF92FF920F931F93CF93DF938C01892BC9
:103C800009F46CC0F12CEE24E394E8012196F801CC
:103C90008491843740F4843008F051C0813081F041
:103CA000823019F15BC0853709F444C0A8F19CE764
:103CB000980F903708F052C08F770E94601741C06C
:103CC0000E5F1F4FFE01C49180E28C0F883048F4D4
:103CD000C7708E2D01C0880FCA95EAF70E94C720D1
:103CE00014C08C2F0E94B4162DC00E5F1F4FFE0112
:103CF000C49180E28C0F883058F4C7708E2D01C0BB
:103D0000880FCA95EAF70E94CD200E94F0201AC0C1
:103D10008C2F0E94601716C00E5F1F4FFE01C491CA
:103D2000CC2381F08FE99FE00197F1F700C00000FC
:103D3000C150F6CF0E5F1F4FFE01F49003C00E94EA
:103D4000B4168E018F2D882309F49FCFEFE9FFE091
:103D50003197F1F700C000008150F5CFDF91CF918E
:103D60001F910F91FF90EF90089508950C94B51E48
:103D70000E94B61E60932E0370932F03809330032E
:103D8000909331030C94D01A08950C94B81E0F939D
:103D90001F9300912E0310912F0320913003309137
:103DA0003103602B712B822B932B1F910F910C945D
:103DB000B81E0F931F9300912E0310912F03209193
:103DC00030033091310360237123822393231F91A9
:103DD0000F910C94B81E0F931F9300912E03109116
:103DE0002F03209130033091310360277127822700
:103DF00093271F910F910C94B81E08950C94FD1EEB
:103E00000E94FE1E60932A0370932B0380932C0361
:103E100090932D030C94D01A60E070E0CB010C94C9
:103E2000001F0F931F9341E050E060E070E08A01B3
:103E30009B0104C0000F111F221F331F8A95D2F768
:103E4000C901B8011F910F910C94001F0F931F938C
:103E500041E050E060E070E004C0440F551F661F71
:103E6000771F8A95D2F780912A0390912B03A09116
:103E70002C03B0912D038A019B01082B192B2A2BAF
:103E80003B2BC901B8011F910F910C94001F0F9398
:103E90001F9341E050E060E070E004C0440F551F04
:103EA000661F771F8A95D2F740955095609570955B
:103EB00080912A0390912B03A0912C03B0912D03A4
:103EC0008A019B01082319232A233B23C901B80136
:103ED0001F910F910C94001F0F931F9341E050E02E
:103EE00060E070E004C0440F551F661F771F8A957D
:103EF000D2F780912A0390912B03A0912C03B091CB
:103F00002D038A019B01082719272A273B27C9016E
:103F1000B8011F910F910C94001F0F931F930091F4
:103F20002A0310912B0320912C0330912D03602B39
:103F3000712B822B932B1F910F910C94001F0F93C9
:103F40001F9300912A0310912B0320912C03309191
:103F50002D0360237123822393231F910F910C94CF
:103F6000001F0F931F9300912A0310912B032091A0
:103F70002C0330912D0360277127822793271F91EF
:103F80000F910C94001F0895292F220F920F990F63
:103F9000890FA82FA695A695A695877051E001C018
:103FA000550F8A95EAF785E0A89FD001112420E0FB
:103FB00030E070E0F901EA0FFB1FED50FD4F40814A
:103FC000CB01022E02C0969587950A94E2F7817084
:103FD0009927819584278523842780832F5F3F4FEE
:103FE0002530310539F70895292F220F920F990FA7
:103FF000890F682F669566956695982F977085E06E
:10400000689FB001112440E050E080E0FA01E60F23
:10401000F71FED50FD4F208130E0092E02C036958C
:1040200027950A94E2F721703327042E01C0220F4E
:104030000A94EAF7822B4F5F5F4F4530510531F705
:104040000895BF92CF92DF92EF92FF920F931F934A
:10405000CF93DF938C01C0902E03D0902F03E0907C
:104060003003F090310380912A0390912B03A091AB
:104070002C03B0912D03C82AD92AEA2AFB2ACFE1C2
:10408000D0E0D701C6010C2E04C0B695A795979530
:1040900087950A94D2F780FF07C0BC2EB8018C2FF9
:1040A0000E948F08019719F4219758F7B12C8B2D96
:1040B000DF91CF911F910F91FF90EF90DF90CF9004
:1040C000BF900895CF93DF93EC010E942120BE01A1
:1040D0000E948F08DF91CF9108951F93CF93DF93B4
:1040E000EB019091B802992321F0CB010E9462204C
:1040F00013C0882349F0CB010E942120182F682F7C
:10410000CE010E94C41F04C0CB010E94F41F182FCF
:10411000BE01812F0E948F08DF91CF911F910895DA
:104120008091320385958595859508958091320318
:104130008770089590913203977081E009F480E0D0
:10414000089580915603089590915603892B80938A
:1041500056030895809590915603892380935603C2
:1041600008958093560308951092560308959091F0
:104170005503892B8093550308958095909155039D
:1041800089238093550308951092550308959091C3
:104190005403892B80935403089580959091540380
:1041A00089238093540308951092540308958091B5
:1041B0003303089508950C94DA20909133039817EF
:1041C00021F0809333030C94DB2008958091330316
:1041D000882329F01092330380E00C94DB200895AB
:1041E000E0911701F0911801809156038083E091CE
:1041F0001701F0911801908180915503892B8083DC
:10420000E0911701F0911801908180915403892B5E
:10421000808380913303882381F0E0911701F0912E
:1042200018019081892B808380911701909118014A
:104230000E94F82181110E94E6208091170190913F
:1042400018010C941C1508950C94232198E0899F63
:1042500090011124262B209332030E94261F809167
:1042600032038595859585950C942421109232030F
:1042700080E00C9424212091320380958223809346
:104280003203982F977079F430E0482F082E000CF5
:10429000550B2417350739F08595859585950E942E
:1042A000471F0C943621089580E090E00E94723000
:1042B00021E08C3E9E4F09F020E0822F089582E09D
:1042C00090E00C94643083E090E00C946430CF93E1
:1042D00084E090E00E946430C82F81E290E00E9468
:1042E00064302C2F30E0A901582BCA01CF910895DA
:1042F000CF93C92F682F84E090E00E9478306C2F14
:1043000081E290E0CF910C9478308FE090E00C94B3
:104310006C30AB01BC018FE090E00C948A30AB01B3
:10432000BC0183E190E00C948A3060E070E0CB0146
:104330000C948F216CEE7EEF80E090E00E9496302E
:1043400060E082E090E00E94783060E083E090E0FE
:104350000E94783010922E0310922F031092300397
:104360001092310360E084E090E00E94783060E0D9
:1043700081E290E00E94783060E085E090E00E9469
:10438000783060E086E090E00E9478306FEF87E060
:1043900090E00E94783040E050E0BA0188E090E080
:1043A0000E948A3060E08DE090E00E94783040E02A
:1043B00050E0BA0188E190E00E948A3060E087E135
:1043C00090E00E94783040E050E0BA018CE190E04B
:1043D0000E948A3060E080E290E00E9478300C9485
:1043E00036070C949A21682F8EE090E00C94783078
:1043F000FC01329680912801882331F08091DB0303
:1044000087FF02C09EE101C096E080E0915028F055
:1044100021912223D9F38F5FF9CF08959C01FC01EC
:1044200032969FEF80E04191461789F09F3F19F443
:10443000411101C0982F8F5F8630A9F79F3F39F057
:10444000F901E90FF11D97FDFA956283089508952A
:10445000FC01329608962081261301C01082319605
:10446000E817F907C1F70895262F26952695269572
:104470002E3168F4FC01E20FF11D677021E030E09D
:1044800001C0220F6A95EAF78281282B22830895C2
:10449000262F2695269526952E3170F4FC01E20FE5
:1044A000F11D677021E030E001C0220F6A95EAF744
:1044B0002095828128232283089520912801222398
:1044C00029F02091DB0327FD0C9434220C940E225A
:1044D00020912801222329F02091DB0327FD0C9451
:1044E00048220C94282220912801FC013296222394
:1044F00031F08091DB0387FF02C08EE101C086E0CE
:10450000DF011D928A95E9F7089508950C9485229C
:104510000E9486228091E103843009F439C0109210
:10452000580320E488E190E00FB6F894A8958093B2
:1045300060000FBE2093600080E00E9410080E947F
:1045400022118091590381110AC081E0809359039F
:1045500080919403817080935A030E94AE0E0E9452
:10456000862283B7817F846083BF83B7816083BFE6
:104570007894889583B78E7F83BF0FB6F894A895FB
:1045800080916000886180936000109260000FBE8F
:1045900008950895CF930E9427050E943A050E942E
:1045A000C922C0E08C2F0E94A105811104C0CF5FF9
:1045B000CE30C1F701C081E0CF91089508950C94E9
:1045C000DE220E94EA1A0E9410150E941008109222
:1045D000590380915A0381110E941A110E94671099
:1045E0000C94DF221F920F920FB60F9211248F931B
:1045F0009F93AF93BF9380915803811113C0809113
:10460000D7039091D803A091D903B091DA034196D2
:10461000A11DB11D8093D7039093D803A093D90314
:10462000B093DA03BF91AF919F918F910F900FBE1E
:104630000F901F90189582E084BD93E095BD9AEF8E
:1046400097BD80936E0008952FB7F8948091D7039B
:104650009091D803A091D903B091DA032FBF0895A8
:10466000CF92DF92EF92FF920F931F932FB7F894A0
:104670004091D7035091D8036091D9037091DA0328
:104680002FBF6A017B01EE24FF248C0120E030E083
:10469000C016D106E206F30610F4415051099A0102
:1046A000281B390BC9011F910F91FF90EF90DF90EC
:1046B000CF90089578941F920F920FB60F92112405
:1046C0008F939F93AF93BF938091D7039091D8031B
:1046D000A091D903B091DA030196A11DB11D809379
:1046E000D7039093D803A093D903B093DA03BF9173
:1046F000AF919F918F910F900FBE0F901F901895C3
:10470000F89481E08093E00080E28093D800E9ECA7
:10471000F0E010828FE19EE40197F1F700C0000005
:104720001DBA109268001CBC10BE1FBA10927A000D
:1047300010926E0010926F00109271001092720031
:104740001082ECEBF0E0108214B817B81AB81DB85C
:1047500010BA108215B818B81BB81EB811BA0C944C
:10476000003F08950E945421811102C00E94F1214E
:104770000E945F21809357030E9467219093DC037E
:104780008093DB030E946321682F70E080E090E05B
:104790000C94C51E80915F0380FF0BC060911C01CB
:1047A00085E0689FB00111247595679575956795AB
:1047B0002BC081FF09C060911C0185E0689FB0019A
:1047C00011247595679520C082FF07C060911C0178
:1047D00085E0689FB001112417C090915E03992372
:1047E000D1F060911B01961788F720911C0185E09C
:1047F000289F90011124929FA001939F500D112496
:1048000070E0CA010E94042F6038710540F4611500
:10481000710539F002C065E070E0862F08958FE7DA
:10482000089581E0089580915F0380FF08C0609142
:104830001A0170E0759567957595679521C081FFA0
:1048400006C060911A0170E07595679519C082FFE6
:1048500004C060911A0170E010C090915E0399232A
:10486000C1F0609119019617A0F780911A01899FF4
:10487000C001112470E00E94042F6038710528F4F3
:104880006115710521F0862F08958FE7089581E065
:10489000089561E070E0F4CF803F21F40E94CA23C4
:1048A000819504C0813F29F40E94CA238093630349
:1048B0000895823F21F40E94CA23819504C0833F5A
:1048C00029F40E94CA23809362030895893F19F452
:1048D0000E94132405C08A3F31F40E94132481955D
:1048E0008093640308958B3F21F40E9413248195E3
:1048F00004C08C3F29F40E9413248093650308951B
:10490000843F21F480916103816017C0853F21F4C9
:1049100080916103826011C0863F21F48091610320
:1049200084600BC0873F21F480916103886005C0DB
:10493000883F31F480916103806180936103089521
:104940008D3F21F480915F0381600BC08E3F21F485
:1049500080915F03826005C08F3F29F480915F03DF
:10496000846080935F030895803F39F480916303EE
:1049700087FF6CC01092630369C0813F29F4809166
:1049800063031816BCF362C090916203823F29F45E
:1049900097FF5CC01092620359C0833F19F4191647
:1049A000CCF354C0893F41F48091640318160CF095
:1049B0004DC0109264034AC08A3F29F48091640379
:1049C00087FF44C0F6CF8B3F39F48091650387FFA2
:1049D0003DC0109265033AC08C3F29F48091650375
:1049E0001816BCF333C0843F21F4809161038E7F9D
:1049F00017C0853F21F4809161038D7F11C0863FF0
:104A000021F4809161038B7F0BC0873F21F480915B
:104A10006103877F05C0883F31F4809161038F7EF9
:104A20008093610313C08D3F21F480915F038E7FDB
:104A30000BC08E3F21F480915F038D7F05C08F3FB7
:104A400029F480915F038B7F80935F0380916203E1
:104A500081110EC08091630381110AC080916403AB
:104A6000811106C080916503811102C010925E031E
:104A7000089580E693E00E9436150E9424239093C7
:104A80005D0380935C0308951F93CF93DF93809120
:104A90005C0390915D030E943023AC0190915E0312
:104AA000992321F020911D0130E006C020915B0385
:104AB0008AE0289F900111244217530708F47BC015
:104AC00080916203C0916303D091640310916503E8
:104AD000811107C0C1116BC0D11169C0111167C02C
:104AE0006AC09F3F19F09F5F90935E03181624F4ED
:104AF0000E94CA23809362038091620387FF05C0EE
:104B00000E94CA238195809362031C1624F40E949C
:104B1000CA23809363038091630387FF05C00E94CB
:104B2000CA23819580936303309162033323E1F0BC
:104B3000209163032223C1F045EB3403C00111240B
:104B4000892F990F990B009709F481E080936203F4
:104B500035EB2303C0011124892F990F990B00977E
:104B600009F481E0809363031D1624F40E9413244A
:104B7000809364038091640387FF05C00E9413241F
:104B8000819580936403111624F40E94132480936A
:104B900065038091650387FF05C00E9413248195FA
:104BA00080936503DF91CF911F910C9439259F3F2E
:104BB00009F099CFA1CFDF91CF911F910895E0E641
:104BC000F3E086E0DF011D928A95E9F710925E031B
:104BD00010925F030895833081F128F4813059F0F9
:104BE0008230D1F00895853009F449C0B8F186309B
:104BF00009F456C0089580915B03262F30E0280FFA
:104C0000311D2F3F310524F4680F60935B03089535
:104C10008FEF80935B03089580911D01262F30E074
:104C2000280F311D2F3F310524F4680F60931D01BB
:104C300008958FEF80931D01089580911C01262F08
:104C400030E0280F311D2F3F310524F4680F6093A9
:104C50001C0108958FEF80931C01089580911B0122
:104C6000262F30E0280F311D2F3F310524F4680F27
:104C700060931B0108958FEF80931B01089580912D
:104C80001A01262F30E0280F311D2F3F310524F463
:104C9000680F60931A0108958FEF80931A010895A9
:104CA00080911901262F30E0280F311D2F3F31054B
:104CB00024F4680F6093190108958FEF8093190110
:104CC0000895833011F128F4813049F0823091F059
:104CD0000895853081F120F18630C1F108958091E9
:104CE0005B03681720F4861B80935B030895109282
:104CF0005B03089580911D01681720F4861B809343
:104D00001D01089510921D01089580911C016817DE
:104D100020F4861B80931C01089510921C010895B5
:104D200080911B01681720F4861B80931B01089556
:104D300010921B01089580911A01681720F4861BB8
:104D400080931A01089510921A0108958091190113
:104D5000681720F4861B8093190108951092190199
:104D600008950F931F93482F50E0FA013597EF33C2
:104D7000F10508F07FC0E157FF4F0C94182F0E94F7
:104D8000F12171C080915703817F8E7F80935703FB
:104D900081E0809367036FC00E94EA1A0FEF13ED62
:104DA00020E3015010402040E1F700C000000E94C5
:104DB000802359C080915703982F9095917090FB54
:104DC00080F98093570391114EC0897F877F10C06F
:104DD0008091570381FB222720F991E0922790FBD5
:104DE00081F9809357039923F1F1809157038160F2
:104DF0008093570338C08091570382FB222720F904
:104E000091E0922790FB82F9ECCF8091570383FBCE
:104E1000222720F991E0922790FB83F9E2CF0E94AC
:104E2000EA1A8091DB0387FB222720F991E0922781
:104E300090FB87F98093DB0316C0895301C08D5125
:104E400041E050E060E070E08A019B0104C0000F87
:104E5000111F221F331F8A95D2F7C901B8010E9482
:104E6000C51E0E94EA1A81E006C061E070E080E0A1
:104E700090E0F5CF80E01F910F91089580E00895B4
:104E800080E008958E518A3030F4E82FF0E0E85A3F
:104E9000FD4F8081089580E00895CF93C82F8091C1
:104EA0006703813071F018F08230E1F184C00E9414
:104EB000A120813151F00E94A120823209F07DC0F1
:104EC00004C00E94A120813149F48C2F0E943E270A
:104ED000811109C08C2F0E94B12622C00E94A120FE
:104EE000823221F4F2CF81E090E01AC08C2F0E9430
:104EF0004027811114C0C43179F048F4CB3079F0E7
:104F0000C03109F05EC082E08093670308C0C932F7
:104F100019F0C83321F055C01092670352C081E0E8
:104F2000817051C0C93279F108F5C43161F1A0F442
:104F3000C73009F044C010925B0384E180931D01E7
:104F4000C0931C018CE380931B0188E080931A01BD
:104F500088E28093190133C082EE8C0F863078F599
:104F60008C2F0E9442278093660329C0CE34E9F03B
:104F700020F4CB3421F56AE013C0C13579F0C23595
:104F8000F1F461E00DC080916603882319F010925E
:104F9000660315C081E08093670315C061E006C019
:104FA000809166030E94EB250AC06AE08091660347
:104FB0000E94612604C01092670380E004C081E073
:104FC00002C080E0ADCFCF9108958091880308950D
:104FD000CF93DF9300D01F92CDB7DEB79091E1035E
:104FE000943019F589837B836A8382E08093E9009A
:104FF0008FEF9091E800815095FD06C095ED9A9550
:10500000F1F700008111F5CF8091E80085FF0DC018
:1050100040E050E063E070E0CE0101960E94462A35
:105020008091E8008E778093E8000F900F900F90AA
:10503000DF91CF910895CF93DF93EC010E94292A4D
:10504000823011F0843031F4BE0184E0DF91CF91E1
:105050000C94E827DF91CF910895BC0183E00C9474
:10506000E827CF93DF93EC010E94292A823011F0C8
:105070008430F9F482E08093E9009FEF8091E800AA
:10508000915085FD06C085ED8A95F1F700009111DC
:10509000F5CF8091E80085FF0CC040E050E066E06D
:1050A00070E0CE010E94462A8091E8008E778093BE
:1050B000E800DF91CF910895CF93DF93EC010E9438
:1050C000292A823011F08430D9F580912801882373
:1050D00039F08091DB0387FF03C060E282E002C009
:1050E00068E081E08093E9008FEF9091E8008150C3
:1050F00095FD06C095ED9A95F1F700008111F5CF69
:105100008091E80085FF1CC080912801811105C0B5
:1051100040E050E068E070E003C070E040E050E044
:10512000CE010E94462A8091E8008E778093E800A5
:1051300080E2FE01A8E6B3E001900D928A95E1F7C6
:10514000DF91CF9108958091E003811109C00E9401
:10515000DB2B0E94382C8091E20084608093E20077
:1051600008951092E0030895089508950C94E122A3
:1051700042E061EC81E00E94552B42E261EC82E06A
:105180000C94552B8091E303833009F460C030F414
:10519000813071F0823009F499C008958A3009F4A1
:1051A00085C08B3009F46BC0893009F0A7C020C0DE
:1051B0008091E203813A09F0A1C08091E800877FE5
:1051C0008093E8008091E6039091E703892B21F416
:1051D00060E288E693E003C060E080E090E070E089
:1051E0000E94912A8091E8008B778093E8000895CF
:1051F0008091E203813209F081C08091E6039091B1
:10520000E703029708F07AC08091E800877F8093D7
:10521000E8008091E80082FD05C08091E1038111E2
:10522000F8CF6CC02091F3008091F20090E0922BB7
:10523000029729F48091F1008B7F813021F48091D5
:10524000F100809388038091E8008B7753C08091B0
:10525000E203813A09F052C08091E6039091E7039E
:10526000892B09F04BC08091E800877F8093E8008C
:105270008091E80080FFFCCF8091280136C08091AA
:10528000E2038132D9F58091E6039091E703892BFF
:10529000A9F58091E800877F8093E8000E948A2B1F
:1052A0008091E403809328010C94EA1A8091E20330
:1052B000813221F58091E800877F8093E8000E9489
:1052C0008A2B8091E5038093890308958091E203FE
:1052D000813AA1F48091E800877F8093E800809173
:1052E000E80080FFFCCF809189038093F1008091DA
:1052F000E8008E778093E8000C948A2B089584B799
:10530000877F84BF0FB6F894A8958091600088616C
:1053100080936000109260000FBE90E080E80FB6AE
:10532000F89480936100909361000FBE0E947E15F7
:105330000E94DB2B0E94382C8091E20084608093D5
:10534000E20078940E94C72E0E9486158EE191E0BB
:105350000E940B158091E103853069F40E94882238
:105360008091DF038823B1F30E94CA22882391F33E
:105370000E94302AEFCF0E949015ECCF0C94C029E8
:10538000292F332723303105C9F064F4213031054A
:1053900081F02230310509F04CC08BE390E029E424
:1053A00037E04BC02132310521F12232310589F13C
:1053B00040C082E190E024E837E03FC09927813087
:1053C000910571F02CF4892BA1F5E5E4F7E00DC00F
:1053D0008230910541F0039761F5EFE0F7E005C0F9
:1053E000EDE2F7E002C0E5E1F7E0849190E09F0193
:1053F00024C06115710541F061307105D1F489E077
:1054000090E024E737E019C089E090E02BE537E031
:1054100014C06115710541F06130710551F48CEBD8
:1054200090E026E937E009C080E490E022E538E02A
:1054300004C080E090E020E030E0FA013183208376
:1054400008958091E103843011F081E0089582E0B5
:10545000089580918A03811102C00C94212A089535
:1054600080E189BD82E189BD09B400FEFDCF809154
:10547000D8008F7D8093D8008091E0008260809377
:10548000E0008091E00081FDFCCF0895CF92DF9293
:10549000EF92FF920F931F93CF93DF93EC018B0159
:1054A0006A010E94A92B811133C0C114D10439F0C3
:1054B000F60180819181081B190BC80FD91FE12CBF
:1054C000F12C0115110519F18091E80085FD16C038
:1054D0008091E8008E778093E800C114D10449F0F0
:1054E000F60180819181E80EF91EF182E08285E06B
:1054F0000FC00E94A92B882321F30AC089918093B1
:10550000F10001501109FFEFEF1AFF0ADACF80E036
:10551000DF91CF911F910F91FF90EF90DF90CF908F
:1055200008952091E8033091E9032617370748F0E2
:105530006115710539F42091E8002E772093E80079
:1055400001C0B90140E061157105A9F12091E103A5
:10555000222309F443C0253009F442C02091E80019
:1055600023FD40C02091E80022FD32C02091E800D8
:1055700020FFE9CF4091F3002091F20030E0342B7E
:10558000FC01CF016115710559F02830310540F457
:1055900081918093F100615071092F5F3F4FF1CFEE
:1055A00041E02830310509F040E02091E8002E77F5
:1055B0002093E800C8CF4111C9CF0AC08091E10310
:1055C000882361F0853061F08091E80083FD0AC096
:1055D0008091E80082FFF2CF80E0089582E0089594
:1055E00083E0089581E008952091E8033091E90374
:1055F0002617370748F06115710539F42091E80046
:105600002E772093E80001C0B901FC0120E061156C
:10561000710591F18091E103882309F440C0853040
:1056200009F43FC08091E80083FD3DC08091E8000F
:1056300082FD2FC08091E80080FFE9CF2091F30028
:105640008091F20090E0922B6115710559F088303D
:10565000910540F424912093F10031966150710935
:105660000196F2CF21E0089709F020E08091E80050
:105670008E778093E800CBCF2111CCCF0AC08091E8
:10568000E103882361F0853061F08091E80083FDBB
:105690000AC08091E80082FFF2CF80E0089582E0A6
:1056A000089583E0089581E00895982F973058F584
:1056B0009093E900981739F07091EC002091ED007B
:1056C0005091F00003C0242F762F50E021FF19C025
:1056D0003091EB003E7F3093EB003091ED003D7F49
:1056E0003093ED003091EB0031603093EB0070931C
:1056F000EC002093ED005093F0002091EE0027FF86
:1057000007C09F5FD3CF8F708093E90081E0089539
:1057100080E008958091E20387FF11C08091E80046
:1057200082FD05C08091E1038111F8CF11C0809105
:10573000E8008B770BC08091E103882349F08091CA
:10574000E80080FFF8CF8091E8008E778093E80032
:1057500008952091E4003091E50095E64091EC0039
:10576000842F817040FF22C08091E80080FD1CC022
:105770008091E103882391F0853091F08091EB00D6
:1057800085FD10C04091E4005091E5004217530799
:1057900029F39A01915011F784E0089582E0089569
:1057A00083E0089581E0089580E008954091E80045
:1057B00042FFDECF08950E94492C0E94512CE0EE5A
:1057C000F0E0808181608083E8EDF0E080818F7778
:1057D000808319BCA7EDB0E08C918E7F8C93808183
:1057E0008F7E80831092E00308950F931F93CF93D1
:1057F000DF930E94492C0E94512CC8EDD0E0888193
:105800008F77888388818068888388818F7D88836B
:1058100019BC1092E1031092DD031092DF03109285
:10582000DE0300EE10E0F80180818B7F80838881A9
:105830008160888342E060E080E00E94552BE1EEC9
:10584000F0E080818E7F8083E2EEF0E080818160F5
:105850008083808188608083F80180818E7F80834F
:10586000888180618883DF91CF911F910F91089586
:10587000E8EDF0E080818F7E8083E7EDF0E08081CD
:105880008160808384E082BF81E08093E0030C9498
:10589000F52BE8EDF0E080818E7F80831092E200AE
:1058A00008951092DA001092E10008951F920F926D
:1058B0000FB60F9211242F933F934F935F936F93E3
:1058C0007F938F939F93AF93BF93EF93FF938091B9
:1058D000E10082FF0BC08091E20082FF07C080914F
:1058E000E1008B7F8093E1000E94C62E8091DA0058
:1058F00080FF1FC08091D80080FF1BC08091DA001C
:105900008E7F8093DA008091D90080FF0DC080E106
:1059100089BD82E189BD09B400FEFDCF81E080939D
:10592000E1030E94A32805C019BC1092E1030E9464
:10593000B1288091E10080FF19C08091E20080FFD2
:1059400015C08091E2008E7F8093E2008091E2009A
:1059500080618093E2008091D80080628093D800BB
:1059600019BC85E08093E1030E94B5288091E10095
:1059700084FF30C08091E20084FF2CC080E189BDAB
:1059800082E189BD09B400FEFDCF8091D8008F7DF2
:105990008093D8008091E1008F7E8093E100809118
:1059A000E2008F7E8093E2008091E200816080932C
:1059B000E2008091DD03882311F084E007C080912C
:1059C000E30087FD02C081E001C083E08093E10332
:1059D0000E94B6288091E10083FF29C08091E200F7
:1059E00083FF25C08091E100877F8093E10082E002
:1059F0008093E1031092DD038091E1008E7F80931C
:105A0000E1008091E2008E7F8093E2008091E200CD
:105A100080618093E20042E060E080E00E94552BCC
:105A20008091F00088608093F0000E94B428FF917C
:105A3000EF91BF91AF919F918F917F916F915F9106
:105A40004F913F912F910F900FBE0F901F9018957F
:105A50001F920F920FB60F9211242F933F934F93E3
:105A60005F936F937F938F939F93AF93BF93CF93E6
:105A7000DF93EF93FF93C091E900CF708091EC002A
:105A8000D82FD17080FDD0E81092E9008091F0000D
:105A9000877F8093F00078940E946C2D1092E9002B
:105AA0008091F00088608093F000CD2BCF70C09380
:105AB000E900FF91EF91DF91CF91BF91AF919F915D
:105AC0008F917F916F915F914F913F912F910F90A7
:105AD0000FBE0F901F9018951F93CF93DF93CDB7F4
